:020000040800F2
:10000000380E00206D010008750100087701000816
:10001000790100087B0100087D0100080000000054
:100020000000000000000000000000007F01000848
:10003000810100080000000083010008850100081C
:100040008701000887010008870100088701000870
:100050008701000887010008870100088701000860
:100060008701000887010008870100088701000850
:100070008701000887010008870100088701000840
:100080008701000887010008870100088701000830
:100090008701000887010008870100088701000820
:1000A0008701000887010008870100088701000810
:1000B0008701000887010008870100088701000800
:1000C00087010008870100088701000887010008F0
:1000D00087010008890400088701000887010008DB
:1000E00087010008870100088701000800F002F876
:1000F00000F02CF80AA090E8000C82448344AAF196
:100100000107DA4501D100F021F8AFF2090EBAE893
:100110000F0013F0010F18BFFB1A43F0010318473B
:100120000804000018040000002300240025002615
:10013000103A28BF78C1FBD8520728BF30C148BF4A
:100140000B6070471FB51FBD10B510BD00F031F832
:100150001146FFF7F7FF00F0D9F900F04FF803B4AC
:10016000FFF7F2FF03BC00F057F800000948804792
:1001700009480047FEE7FEE7FEE7FEE7FEE7FEE789
:10018000FEE7FEE7FEE7FEE704480549054A064BA1
:100190007047000029040008ED000008380800201E
:1001A000380E0020380A0020380A002070477047B7
:1001B0007047754600F02CF8AE4605006946534678
:1001C00020F00700854618B020B5FFF7DDFFBDE839
:1001D00020404FF000064FF000074FF000084FF0AE
:1001E000000B21F00701AC46ACE8C009ACE8C0093F
:1001F000ACE8C009ACE8C0098D46704710B50446AC
:10020000AFF300802046BDE81040FFF7A8BF000014
:1002100000487047D407002001491820ABBEFEE714
:10022000260002007047000010B5094A92F8E92341
:10023000521C4FF47A7392FBF3F403FB1421044A2B
:1002400092F8E923024B985C83F8E91310BD000093
:100250000000002010B5094A92F8E823521C4FF420
:100260007A7392FBF3F403FB1421044A92F8E82317
:10027000024B985483F8E81310BD000000000020E2
:1002800010B50C4A92F8E823521C4FF47A7392FB93
:10029000F3F403FB1421074A92F8E823054B985422
:1002A00083F8E813044A128842F08002024B1A8055
:1002B00010BD0000EA0300200C380140134880699B
:1002C00044F204010843114988611148006840F074
:1002D000B0000F49086040F271200E490880081DE7
:1002E000008842F2AC0108430A49091D0880252014
:1002F000002809DB00F01F02012191404209920011
:1003000002F1E022C2F8001100BF70470010024065
:100310000408014008380140084890F8E8030749FC
:1003200091F8E913401AC0F57A704FF47A7190FB96
:10033000F1F201FB120080B27047000000000020C3
:1003400010B500F001F810BD0CB500200190009030
:100350003348006840F480303149086000BF3048BD
:10036000006800F4003000900198401C0190009853
:1003700018B90198B0F5A06FF1D12948006800F4D0
:10038000003010B10120009001E0002000900098A2
:10039000012843D12348006840F01000214908603B
:1003A0000846006820F0030008600846006840F036
:1003B000020008601A4840681949486008464068C9
:1003C00048600846406840F48060486008464068DD
:1003D00020F47C1048600846406840F4E81048600B
:1003E0000846006840F08070086000BF0C48006854
:1003F00000F000700028F9D00948406820F00300A0
:10040000074948600846406840F00200486000BF65
:100410000348406800F00C000828F9D10CBD00002A
:10042000001002400020024010B51348006840F060
:1004300001001149086008464068104908400E490B
:100440004860084600680E4908400B4908600846A5
:10045000006820F4802008600846406820F4FE0010
:1004600048604FF41F008860FFF76AFF4FF000609C
:100470000449086010BD0000001002400000FFF8B1
:10048000FFFFF6FE08ED00E018B51E48008800F0FA
:10049000200038B11B48001D0088C4B22046FFF779
:1004A000D9FE2DE01748008800F0800040B31648C0
:1004B00090F8E803144991F8E913884208D11148EB
:1004C0000C30008820F080000E490C31088017E0C5
:1004D0000D4890F8E903401C4FF47A7190FBF1F25B
:1004E00001FB12000090084890F8E9030649085CF7
:1004F0000449091D08800449009881F8E90300BFF8
:1005000018BD000000380140EA030020FFF7D6FEC6
:1005100009E0FFF701FF30B1FFF786FE04462046F1
:10052000FFF7AEFE00BFF4E738050008000000202A
:08053000380E0000280100084C
:04000005080000ED02
:00000001FF
